{"abi":[{"type":"constructor","inputs":[{"name":"_evc","type":"address","internalType":"address"},{"name":"_collateralVaultFactory","type":"address","internalType":"address"},{"name":"_aavePool","type":"address","internalType":"contract IPool"},{"name":"rewardsController","type":"address","internalType":"contract IRewardsController"}],"stateMutability":"nonpayable"},{"type":"function","name":"DOMAIN_SEPARATOR","inputs":[],"outputs":[{"name":"","type":"bytes32","internalType":"bytes32"}],"stateMutability":"view"},{"type":"function","name":"EVC","inputs":[],"outputs":[{"name":"","type":"address","internalType":"address"}],"stateMutability":"view"},{"type":"function","name":"INCENTIVES_CONTROLLER","inputs":[],"outputs":[{"name":"","type":"address","internalType":"contract IRewardsController"}],"stateMutability":"view"},{"type":"function","name":"POOL","inputs":[],"outputs":[{"name":"","type":"address","internalType":"contract IPool"}],"stateMutability":"view"},{"type":"function","name":"POOL_ADDRESSES_PROVIDER","inputs":[],"outputs":[{"name":"","type":"address","internalType":"contract IPoolAddressesProvider"}],"stateMutability":"view"},{"type":"function","name":"RAY","inputs":[],"outputs":[{"name":"","type":"uint256","internalType":"uint256"}],"stateMutability":"view"},{"type":"function","name":"UPGRADE_INTERFACE_VERSION","inputs":[],"outputs":[{"name":"","type":"string","internalType":"string"}],"stateMutability":"view"},{"type":"function","name":"aToken","inputs":[],"outputs":[{"name":"","type":"address","internalType":"address"}],"stateMutability":"view"},{"type":"function","name":"allowance","inputs":[{"name":"owner","type":"address","internalType":"address"},{"name":"spender","type":"address","internalType":"address"}],"outputs":[{"name":"","type":"uint256","internalType":"uint256"}],"stateMutability":"view"},{"type":"function","name":"approve","inputs":[{"name":"spender","type":"address","internalType":"address"},{"name":"value","type":"uint256","internalType":"uint256"}],"outputs":[{"name":"","type":"bool","internalType":"bool"}],"stateMutability":"nonpayable"},{"type":"function","name":"asset","inputs":[],"outputs":[{"name":"","type":"address","internalType":"address"}],"stateMutability":"view"},{"type":"function","name":"balanceOf","inputs":[{"name":"account","type":"address","internalType":"address"}],"outputs":[{"name":"","type":"uint256","internalType":"uint256"}],"stateMutability":"view"},{"type":"function","name":"burnShares_CV","inputs":[{"name":"shares","type":"uint256","internalType":"uint256"}],"outputs":[],"stateMutability":"nonpayable"},{"type":"function","name":"claimReward","inputs":[{"name":"to","type":"address","internalType":"address"},{"name":"reward","type":"address","internalType":"address"}],"outputs":[{"name":"","type":"uint256","internalType":"uint256"}],"stateMutability":"nonpayable"},{"type":"function","name":"collateralVaultFactory","inputs":[],"outputs":[{"name":"","type":"address","internalType":"contract ICollateralVaultFactory"}],"stateMutability":"view"},{"type":"function","name":"convertToAssets","inputs":[{"name":"shares","type":"uint256","internalType":"uint256"}],"outputs":[{"name":"","type":"uint256","internalType":"uint256"}],"stateMutability":"view"},{"type":"function","name":"convertToShares","inputs":[{"name":"assets","type":"uint256","internalType":"uint256"}],"outputs":[{"name":"","type":"uint256","internalType":"uint256"}],"stateMutability":"view"},{"type":"function","name":"decimals","inputs":[],"outputs":[{"name":"","type":"uint8","internalType":"uint8"}],"stateMutability":"view"},{"type":"function","name":"deposit","inputs":[{"name":"assets","type":"uint256","internalType":"uint256"},{"name":"receiver","type":"address","internalType":"address"}],"outputs":[{"name":"","type":"uint256","internalType":"uint256"}],"stateMutability":"nonpayable"},{"type":"function","name":"depositATokens","inputs":[{"name":"assets","type":"uint256","internalType":"uint256"},{"name":"receiver","type":"address","internalType":"address"}],"outputs":[{"name":"","type":"uint256","internalType":"uint256"}],"stateMutability":"nonpayable"},{"type":"function","name":"depositWithPermit","inputs":[{"name":"assets","type":"uint256","internalType":"uint256"},{"name":"receiver","type":"address","internalType":"address"},{"name":"deadline","type":"uint256","internalType":"uint256"},{"name":"sig","type":"tuple","internalType":"struct IERC4626StataToken.SignatureParams","components":[{"name":"v","type":"uint8","internalType":"uint8"},{"name":"r","type":"bytes32","internalType":"bytes32"},{"name":"s","type":"bytes32","internalType":"bytes32"}]},{"name":"depositToAave","type":"bool","internalType":"bool"}],"outputs":[{"name":"","type":"uint256","internalType":"uint256"}],"stateMutability":"nonpayable"},{"type":"function","name":"eip712Domain","inputs":[],"outputs":[{"name":"fields","type":"bytes1","internalType":"bytes1"},{"name":"name","type":"string","internalType":"string"},{"name":"version","type":"string","internalType":"string"},{"name":"chainId","type":"uint256","internalType":"uint256"},{"name":"verifyingContract","type":"address","internalType":"address"},{"name":"salt","type":"bytes32","internalType":"bytes32"},{"name":"extensions","type":"uint256[]","internalType":"uint256[]"}],"stateMutability":"view"},{"type":"function","name":"initialize","inputs":[{"name":"aToken","type":"address","internalType":"address"},{"name":"owner","type":"address","internalType":"address"},{"name":"staticATokenName","type":"string","internalType":"string"},{"name":"staticATokenSymbol","type":"string","internalType":"string"}],"outputs":[],"stateMutability":"nonpayable"},{"type":"function","name":"latestAnswer","inputs":[],"outputs":[{"name":"","type":"int256","internalType":"int256"}],"stateMutability":"view"},{"type":"function","name":"maxDeposit","inputs":[{"name":"","type":"address","internalType":"address"}],"outputs":[{"name":"","type":"uint256","internalType":"uint256"}],"stateMutability":"pure"},{"type":"function","name":"maxMint","inputs":[{"name":"","type":"address","internalType":"address"}],"outputs":[{"name":"","type":"uint256","internalType":"uint256"}],"stateMutability":"pure"},{"type":"function","name":"maxRedeem","inputs":[{"name":"","type":"address","internalType":"address"}],"outputs":[{"name":"","type":"uint256","internalType":"uint256"}],"stateMutability":"pure"},{"type":"function","name":"maxWithdraw","inputs":[{"name":"","type":"address","internalType":"address"}],"outputs":[{"name":"","type":"uint256","internalType":"uint256"}],"stateMutability":"pure"},{"type":"function","name":"mint","inputs":[{"name":"shares","type":"uint256","internalType":"uint256"},{"name":"receiver","type":"address","internalType":"address"}],"outputs":[{"name":"","type":"uint256","internalType":"uint256"}],"stateMutability":"nonpayable"},{"type":"function","name":"name","inputs":[],"outputs":[{"name":"","type":"string","internalType":"string"}],"stateMutability":"view"},{"type":"function","name":"nonces","inputs":[{"name":"owner","type":"address","internalType":"address"}],"outputs":[{"name":"","type":"uint256","internalType":"uint256"}],"stateMutability":"view"},{"type":"function","name":"owner","inputs":[],"outputs":[{"name":"","type":"address","internalType":"address"}],"stateMutability":"view"},{"type":"function","name":"paused","inputs":[],"outputs":[{"name":"","type":"bool","internalType":"bool"}],"stateMutability":"view"},{"type":"function","name":"permit","inputs":[{"name":"owner","type":"address","internalType":"address"},{"name":"spender","type":"address","internalType":"address"},{"name":"value","type":"uint256","internalType":"uint256"},{"name":"deadline","type":"uint256","internalType":"uint256"},{"name":"v","type":"uint8","internalType":"uint8"},{"name":"r","type":"bytes32","internalType":"bytes32"},{"name":"s","type":"bytes32","internalType":"bytes32"}],"outputs":[],"stateMutability":"nonpayable"},{"type":"function","name":"previewDeposit","inputs":[{"name":"assets","type":"uint256","internalType":"uint256"}],"outputs":[{"name":"","type":"uint256","internalType":"uint256"}],"stateMutability":"view"},{"type":"function","name":"previewMint","inputs":[{"name":"shares","type":"uint256","internalType":"uint256"}],"outputs":[{"name":"","type":"uint256","internalType":"uint256"}],"stateMutability":"view"},{"type":"function","name":"previewRedeem","inputs":[{"name":"shares","type":"uint256","internalType":"uint256"}],"outputs":[{"name":"","type":"uint256","internalType":"uint256"}],"stateMutability":"view"},{"type":"function","name":"previewWithdraw","inputs":[{"name":"assets","type":"uint256","internalType":"uint256"}],"outputs":[{"name":"","type":"uint256","internalType":"uint256"}],"stateMutability":"view"},{"type":"function","name":"proxiableUUID","inputs":[],"outputs":[{"name":"","type":"bytes32","internalType":"bytes32"}],"stateMutability":"view"},{"type":"function","name":"rebalanceATokens_CV","inputs":[{"name":"shares","type":"uint256","internalType":"uint256"}],"outputs":[],"stateMutability":"nonpayable"},{"type":"function","name":"redeem","inputs":[{"name":"shares","type":"uint256","internalType":"uint256"},{"name":"receiver","type":"address","internalType":"address"},{"name":"owner","type":"address","internalType":"address"}],"outputs":[{"name":"","type":"uint256","internalType":"uint256"}],"stateMutability":"nonpayable"},{"type":"function","name":"redeemATokens","inputs":[{"name":"shares","type":"uint256","internalType":"uint256"},{"name":"receiver","type":"address","internalType":"address"},{"name":"owner","type":"address","internalType":"address"}],"outputs":[{"name":"","type":"uint256","internalType":"uint256"}],"stateMutability":"nonpayable"},{"type":"function","name":"renounceOwnership","inputs":[],"outputs":[],"stateMutability":"nonpayable"},{"type":"function","name":"setPaused","inputs":[{"name":"paused","type":"bool","internalType":"bool"}],"outputs":[],"stateMutability":"nonpayable"},{"type":"function","name":"skim","inputs":[{"name":"receiver","type":"address","internalType":"address"}],"outputs":[],"stateMutability":"nonpayable"},{"type":"function","name":"symbol","inputs":[],"outputs":[{"name":"","type":"string","internalType":"string"}],"stateMutability":"view"},{"type":"function","name":"totalAssets","inputs":[],"outputs":[{"name":"","type":"uint256","internalType":"uint256"}],"stateMutability":"view"},{"type":"function","name":"totalSupply","inputs":[],"outputs":[{"name":"","type":"uint256","internalType":"uint256"}],"stateMutability":"view"},{"type":"function","name":"transfer","inputs":[{"name":"to","type":"address","internalType":"address"},{"name":"value","type":"uint256","internalType":"uint256"}],"outputs":[{"name":"","type":"bool","internalType":"bool"}],"stateMutability":"nonpayable"},{"type":"function","name":"transferFrom","inputs":[{"name":"from","type":"address","internalType":"address"},{"name":"to","type":"address","internalType":"address"},{"name":"value","type":"uint256","internalType":"uint256"}],"outputs":[{"name":"","type":"bool","internalType":"bool"}],"stateMutability":"nonpayable"},{"type":"function","name":"transferOwnership","inputs":[{"name":"newOwner","type":"address","internalType":"address"}],"outputs":[],"stateMutability":"nonpayable"},{"type":"function","name":"upgradeToAndCall","inputs":[{"name":"newImplementation","type":"address","internalType":"address"},{"name":"data","type":"bytes","internalType":"bytes"}],"outputs":[],"stateMutability":"payable"},{"type":"function","name":"version","inputs":[],"outputs":[{"name":"","type":"uint256","internalType":"uint256"}],"stateMutability":"pure"},{"type":"function","name":"withdraw","inputs":[{"name":"assets","type":"uint256","internalType":"uint256"},{"name":"receiver","type":"address","internalType":"address"},{"name":"owner","type":"address","internalType":"address"}],"outputs":[{"name":"","type":"uint256","internalType":"uint256"}],"stateMutability":"nonpayable"},{"type":"event","name":"Approval","inputs":[{"name":"owner","type":"address","indexed":true,"internalType":"address"},{"name":"spender","type":"address","indexed":true,"internalType":"address"},{"name":"value","type":"uint256","indexed":false,"internalType":"uint256"}],"anonymous":false},{"type":"event","name":"Deposit","inputs":[{"name":"sender","type":"address","indexed":true,"internalType":"address"},{"name":"owner","type":"address","indexed":true,"internalType":"address"},{"name":"assets","type":"uint256","indexed":false,"internalType":"uint256"},{"name":"shares","type":"uint256","indexed":false,"internalType":"uint256"}],"anonymous":false},{"type":"event","name":"EIP712DomainChanged","inputs":[],"anonymous":false},{"type":"event","name":"Initialized","inputs":[{"name":"version","type":"uint64","indexed":false,"internalType":"uint64"}],"anonymous":false},{"type":"event","name":"OwnershipTransferred","inputs":[{"name":"previousOwner","type":"address","indexed":true,"internalType":"address"},{"name":"newOwner","type":"address","indexed":true,"internalType":"address"}],"anonymous":false},{"type":"event","name":"Paused","inputs":[{"name":"account","type":"address","indexed":false,"internalType":"address"}],"anonymous":false},{"type":"event","name":"Transfer","inputs":[{"name":"from","type":"address","indexed":true,"internalType":"address"},{"name":"to","type":"address","indexed":true,"internalType":"address"},{"name":"value","type":"uint256","indexed":false,"internalType":"uint256"}],"anonymous":false},{"type":"event","name":"Unpaused","inputs":[{"name":"account","type":"address","indexed":false,"internalType":"address"}],"anonymous":false},{"type":"event","name":"Upgraded","inputs":[{"name":"implementation","type":"address","indexed":true,"internalType":"address"}],"anonymous":false},{"type":"event","name":"Withdraw","inputs":[{"name":"sender","type":"address","indexed":true,"internalType":"address"},{"name":"receiver","type":"address","indexed":true,"internalType":"address"},{"name":"owner","type":"address","indexed":true,"internalType":"address"},{"name":"assets","type":"uint256","indexed":false,"internalType":"uint256"},{"name":"shares","type":"uint256","indexed":false,"internalType":"uint256"}],"anonymous":false},{"type":"error","name":"AddressEmptyCode","inputs":[{"name":"target","type":"address","internalType":"address"}]},{"type":"error","name":"ControllerDisabled","inputs":[]},{"type":"error","name":"ECDSAInvalidSignature","inputs":[]},{"type":"error","name":"ECDSAInvalidSignatureLength","inputs":[{"name":"length","type":"uint256","internalType":"uint256"}]},{"type":"error","name":"ECDSAInvalidSignatureS","inputs":[{"name":"s","type":"bytes32","internalType":"bytes32"}]},{"type":"error","name":"ERC1967InvalidImplementation","inputs":[{"name":"implementation","type":"address","internalType":"address"}]},{"type":"error","name":"ERC1967NonPayable","inputs":[]},{"type":"error","name":"ERC20InsufficientAllowance","inputs":[{"name":"spender","type":"address","internalType":"address"},{"name":"allowance","type":"uint256","internalType":"uint256"},{"name":"needed","type":"uint256","internalType":"uint256"}]},{"type":"error","name":"ERC20InsufficientBalance","inputs":[{"name":"sender","type":"address","internalType":"address"},{"name":"balance","type":"uint256","internalType":"uint256"},{"name":"needed","type":"uint256","internalType":"uint256"}]},{"type":"error","name":"ERC20InvalidApprover","inputs":[{"name":"approver","type":"address","internalType":"address"}]},{"type":"error","name":"ERC20InvalidReceiver","inputs":[{"name":"receiver","type":"address","internalType":"address"}]},{"type":"error","name":"ERC20InvalidSender","inputs":[{"name":"sender","type":"address","internalType":"address"}]},{"type":"error","name":"ERC20InvalidSpender","inputs":[{"name":"spender","type":"address","internalType":"address"}]},{"type":"error","name":"ERC2612ExpiredSignature","inputs":[{"name":"deadline","type":"uint256","internalType":"uint256"}]},{"type":"error","name":"ERC2612InvalidSigner","inputs":[{"name":"signer","type":"address","internalType":"address"},{"name":"owner","type":"address","internalType":"address"}]},{"type":"error","name":"ERC4626ExceededMaxDeposit","inputs":[{"name":"receiver","type":"address","internalType":"address"},{"name":"assets","type":"uint256","internalType":"uint256"},{"name":"max","type":"uint256","internalType":"uint256"}]},{"type":"error","name":"ERC4626ExceededMaxMint","inputs":[{"name":"receiver","type":"address","internalType":"address"},{"name":"shares","type":"uint256","internalType":"uint256"},{"name":"max","type":"uint256","internalType":"uint256"}]},{"type":"error","name":"ERC4626ExceededMaxRedeem","inputs":[{"name":"owner","type":"address","internalType":"address"},{"name":"shares","type":"uint256","internalType":"uint256"},{"name":"max","type":"uint256","internalType":"uint256"}]},{"type":"error","name":"ERC4626ExceededMaxWithdraw","inputs":[{"name":"owner","type":"address","internalType":"address"},{"name":"assets","type":"uint256","internalType":"uint256"},{"name":"max","type":"uint256","internalType":"uint256"}]},{"type":"error","name":"EVC_InvalidAddress","inputs":[]},{"type":"error","name":"EnforcedPause","inputs":[]},{"type":"error","name":"ExpectedPause","inputs":[]},{"type":"error","name":"FailedCall","inputs":[]},{"type":"error","name":"IncorrectEVC","inputs":[]},{"type":"error","name":"InvalidAccountNonce","inputs":[{"name":"account","type":"address","internalType":"address"},{"name":"currentNonce","type":"uint256","internalType":"uint256"}]},{"type":"error","name":"InvalidInitialization","inputs":[]},{"type":"error","name":"NotAuthorized","inputs":[]},{"type":"error","name":"NotCollateralVault","inputs":[]},{"type":"error","name":"NotInitializing","inputs":[]},{"type":"error","name":"OnlyPauseGuardian","inputs":[{"name":"caller","type":"address","internalType":"address"}]},{"type":"error","name":"OwnableInvalidOwner","inputs":[{"name":"owner","type":"address","internalType":"address"}]},{"type":"error","name":"OwnableUnauthorizedAccount","inputs":[{"name":"account","type":"address","internalType":"address"}]},{"type":"error","name":"PoolAddressMismatch","inputs":[{"name":"pool","type":"address","internalType":"address"}]},{"type":"error","name":"SafeERC20FailedOperation","inputs":[{"name":"token","type":"address","internalType":"address"}]},{"type":"error","name":"StaticATokenInvalidZeroShares","inputs":[]},{"type":"error","name":"UUPSUnauthorizedCallContext","inputs":[]},{"type":"error","name":"UUPSUnsupportedProxiableUUID","inputs":[{"name":"slot","type":"bytes32","internalType":"bytes32"}]},{"type":"error","name":"ZeroIncentivesControllerIsForbidden","inputs":[]}],"bytecode":{"object":"0x6101406040523060c052348015610014575f5ffd5b506040516149f33803806149f383398101604081905261003391610289565b8382806001600160a01b03166080816001600160a01b031681525050806001600160a01b0316630542975c6040518163ffffffff1660e01b8152600401602060405180830381865afa15801561008b573d5f5f3e3d5ffd5b505050506040513d601f19601f820116820180604052508101906100af91906102e5565b6001600160a01b0390811660a052821690506100de57604051638133abd160e01b815260040160405180910390fd5b6001600160a01b0390811660e0528381166101008190526040805163a70354a160e01b815290519287169263a70354a1916004808201926020929091908290030181865afa158015610132573d5f5f3e3d5ffd5b505050506040513d601f19601f8201168201806040525081019061015691906102e5565b6001600160a01b03161461017d57604051635c89411f60e01b815260040160405180910390fd5b6001600160a01b0381166101a45760405163065619db60e41b815260040160405180910390fd5b6001600160a01b038116610120526101ba6101c3565b50505050610307565b7ff0c57e16840df040f15088dc2f81fe391c3923bec73e23a9662efc9c229c6a00805468010000000000000000900460ff16156102135760405163f92ee8a960e01b815260040160405180910390fd5b80546001600160401b03908116146102725780546001600160401b0319166001600160401b0390811782556040519081527fc7f505b2f371ae2175ee4913f4499e1f2633a7b5936321eed1cdaeb6115181d29060200160405180910390a15b50565b6001600160a01b0381168114610272575f5ffd5b5f5f5f5f6080858703121561029c575f5ffd5b84516102a781610275565b60208601519094506102b881610275565b60408601519093506102c981610275565b60608601519092506102da81610275565b939692955090935050565b5f602082840312156102f5575f5ffd5b815161030081610275565b9392505050565b60805160a05160c05160e051610100516101205161463c6103b75f395f818161042e0152610ec101525f81816105f2015281816117b60152611cf001525f81816107c401528181612afc0152612b5001525f81816123540152818161237d015261264301525f818161050b0152610f6a01525f81816106f30152818161149b0152818161151901528181611e0101528181612543015281816128d601528181612f5b015261308d015261463c5ff3fe608060405260043610610345575f3560e01c8063715018a6116101b2578063ba087652116100f2578063d505accf11610092578063e25ec3491161006d578063e25ec349146109aa578063ef8b30f7146108cb578063f2fde38b146109c9578063fdebd167146109e8575f5ffd5b8063d505accf14610928578063d905777e1461057b578063dd62ed3e14610947575f5ffd5b8063c6e6f592116100cd578063c6e6f592146108cb578063cabc777e146108ea578063ce96cb771461057b578063d0be1d0014610909575f5ffd5b8063ba0876521461088d578063bc25cf77146108ac578063c63d75b61461057b575f5ffd5b806395d89b411161015d578063a9059cbb11610138578063a9059cbb146107e8578063ad3cb1cc14610807578063b3d7f6b91461084f578063b460af941461086e575f5ffd5b806395d89b411461078e578063a0c1f15e146107a2578063a70354a1146107b6575f5ffd5b806384b0196e1161018d57806384b0196e146107345780638da5cb5b1461075b57806394bf804d1461076f575f5ffd5b8063715018a6146106ce5780637535d246146106e25780637ecebe0014610715575f5ffd5b80633644e515116102885780635297ffbb11610228578063552033c411610203578063552033c41461063b5780635c975abb1461065a5780636e553f651461069057806370a08231146106af575f5ffd5b80635297ffbb146105e157806352d1902d1461061457806354fd4d5014610628575f5ffd5b80634953c782116102635780634953c7821461059b5780634cdad506146103915780634f1ef286146105ba57806350d25bcd146105cd575f5ffd5b80633644e5151461055357806338d52e0f14610567578063402d267d1461057b575f5ffd5b806310d0ab22116102f35780632016a0d2116102ce5780632016a0d2146104bc57806323b872dd146104db578063311cd5a4146104fa578063313ce5671461052d575f5ffd5b806310d0ab221461041d57806316c38b3c1461046857806318160ddd14610489575f5ffd5b8063090edf9a11610323578063090edf9a146103b0578063095ea7b3146103cf5780630a28a477146103fe575f5ffd5b806301e1d1141461034957806306fdde031461037057806307a2d13a14610391575b5f5ffd5b348015610354575f5ffd5b5061035d610a07565b6040519081526020015b60405180910390f35b34801561037b575f5ffd5b50610384610a3e565b6040516103679190613cd7565b34801561039c575f5ffd5b5061035d6103ab366004613ce9565b610af6565b3480156103bb575f5ffd5b5061035d6103ca366004613d14565b610b07565b3480156103da575f5ffd5b506103ee6103e9366004613d53565b610b33565b6040519015158152602001610367565b348015610409575f5ffd5b5061035d610418366004613ce9565b610b54565b348015610428575f5ffd5b506104507f000000000000000000000000000000000000000000000000000000000000000081565b6040516001600160a01b039091168152602001610367565b348015610473575f5ffd5b50610487610482366004613d8a565b610b60565b005b348015610494575f5ffd5b507f52c63247e1f47db19d5ce0460030c497f067ca4cebf71ba98eeadabe20bace025461035d565b3480156104c7575f5ffd5b506104876104d6366004613dea565b610b81565b3480156104e6575f5ffd5b506103ee6104f5366004613e7e565b610dcc565b348015610505575f5ffd5b506104507f000000000000000000000000000000000000000000000000000000000000000081565b348015610538575f5ffd5b50610541610df9565b60405160ff9091168152602001610367565b34801561055e575f5ffd5b5061035d610e02565b348015610572575f5ffd5b50610450610e0b565b348015610586575f5ffd5b5061035d610595366004613ebc565b505f1990565b3480156105a6575f5ffd5b5061035d6105b5366004613ed7565b610e3f565b6104876105c8366004613f8a565b610f47565b3480156105d8575f5ffd5b5061035d610f66565b3480156105ec575f5ffd5b506104507f000000000000000000000000000000000000000000000000000000000000000081565b34801561061f575f5ffd5b5061035d6110a4565b348015610633575f5ffd5b50600161035d565b348015610646575f5ffd5b5061035d6b033b2e3c9fd0803ce800000081565b348015610665575f5ffd5b507fcd5ed15c6e187e77e9aee88184c21f4f2182ab5827cb3b7e07fbedcd63f033005460ff166103ee565b34801561069b575f5ffd5b5061035d6106aa36600461404f565b6110d2565b3480156106ba575f5ffd5b5061035d6106c9366004613ebc565b611102565b3480156106d9575f5ffd5b50610487611145565b3480156106ed575f5ffd5b506104507f000000000000000000000000000000000000000000000000000000000000000081565b348015610720575f5ffd5b5061035d61072f366004613ebc565b611158565b34801561073f575f5ffd5b50610748611162565b6040516103679796959493929190614072565b348015610766575f5ffd5b5061045061125c565b34801561077a575f5ffd5b5061035d61078936600461404f565b611284565b348015610799575f5ffd5b506103846112a6565b3480156107ad575f5ffd5b506104506112f7565b3480156107c1575f5ffd5b507f0000000000000000000000000000000000000000000000000000000000000000610450565b3480156107f3575f5ffd5b506103ee610802366004613d53565b61131f565b348015610812575f5ffd5b506103846040518060400160405280600581526020017f352e302e3000000000000000000000000000000000000000000000000000000081525081565b34801561085a575f5ffd5b5061035d610869366004613ce9565b611336565b348015610879575f5ffd5b5061035d610888366004613d14565b611342565b348015610898575f5ffd5b5061035d6108a7366004613d14565b61136e565b3480156108b7575f5ffd5b506104876108c6366004613ebc565b611391565b3480156108d6575f5ffd5b5061035d6108e5366004613ce9565b6115dc565b3480156108f5575f5ffd5b5061035d610904366004614134565b6115e7565b348015610914575f5ffd5b50610487610923366004613ce9565b611788565b348015610933575f5ffd5b506104876109423660046141fa565b611a1c565b348015610952575f5ffd5b5061035d610961366004613ed7565b6001600160a01b039182165f9081527f52c63247e1f47db19d5ce0460030c497f067ca4cebf71ba98eeadabe20bace016020908152604080832093909416825291909152205490565b3480156109b5575f5ffd5b5061035d6109c436600461404f565b611ba3565b3480156109d4575f5ffd5b506104876109e3366004613ebc565b611c6f565b3480156109f3575f5ffd5b50610487610a02366004613ce9565b611cc2565b5f610a39610a337f52c63247e1f47db19d5ce0460030c497f067ca4cebf71ba98eeadabe20bace025490565b5f611da1565b905090565b60605f7f52c63247e1f47db19d5ce0460030c497f067ca4cebf71ba98eeadabe20bace005b9050806003018054610a7490614264565b80601f0160208091040260200160405190810160405280929190818152602001828054610aa090614264565b8015610aeb5780601f10610ac257610100808354040283529160200191610aeb565b820191905f5260205f20905b815481529060010190602001808311610ace57829003601f168201915b505050505091505090565b5f610b01825f611da1565b92915050565b5f5f610b1285610af6565b9050610b29610b1f611dc2565b858584895f611dcb565b90505b9392505050565b5f5f610b3d611dc2565b9050610b4a818585611f6b565b5060019392505050565b5f610b01826001611f78565b610b68611f9a565b8015610b7957610b76612007565b50565b610b766120a0565b7ff0c57e16840df040f15088dc2f81fe391c3923bec73e23a9662efc9c229c6a00805468010000000000000000810460ff16159067ffffffffffffffff165f81158015610bcb5750825b90505f8267ffffffffffffffff166001148015610be75750303b155b905081158015610bf5575080155b15610c2c576040517ff92ee8a900000000000000000000000000000000000000000000000000000000815260040160405180910390fd5b84547fffffffffffffffffffffffffffffffffffffffffffffffff00000000000000001660011785558315610c8d5784547fffffffffffffffffffffffffffffffffffffffffffffff00ffffffffffffffff16680100000000000000001785555b610cfe89898080601f0160208091040260200160405190810160405280939291908181526020018383808284375f9201919091525050604080516020601f8d018190048102820181019092528b815292508b91508a90819084018382808284375f9201919091525061211892505050565b610d3c89898080601f0160208091040260200160405190810160405280939291908181526020018383808284375f9201919091525061212a92505050565b610d458b612171565b610d4d61218e565b610d568a61219e565b610d5e6121af565b8315610dbf5784547fffffffffffffffffffffffffffffffffffffffffffffff00ffffffffffffffff168555604051600181527fc7f505b2f371ae2175ee4913f4499e1f2633a7b5936321eed1cdaeb6115181d29060200160405180910390a15b5050505050505050505050565b5f5f610dd6611dc2565b9050610de38582856121b7565b610dee858585612264565b506001949350505050565b5f610a396122f3565b5f610a39612340565b5f807f0773e532dfede91f04b12a73d3d2acd361424f41f76b4fb79f090161e36b4e005b546001600160a01b031692915050565b5f610e48611f9a565b6040805160018082528183019092525f9160208083019080368337019050509050610e716112f7565b815f81518110610e8357610e836142b5565b6001600160a01b0392831660209182029290920101526040517f236300dc0000000000000000000000000000000000000000000000000000000081527f00000000000000000000000000000000000000000000000000000000000000009091169063236300dc90610eff9084905f1990899089906004016142e2565b6020604051808303815f875af1158015610f1b573d5f5f3e3d5ffd5b505050506040513d601f19601f82011682018060405250810190610f3f919061434d565b949350505050565b610f4f612349565b610f5882612419565b610f628282612421565b5050565b5f5f7f00000000000000000000000000000000000000000000000000000000000000006001600160a01b031663fca513a86040518163ffffffff1660e01b8152600401602060405180830381865afa158015610fc4573d5f5f3e3d5ffd5b505050506040513d601f19601f82011682018060405250810190610fe89190614364565b6001600160a01b031663b3596f07610ffe610e0b565b6040517fffffffff0000000000000000000000000000000000000000000000000000000060e084901b1681526001600160a01b039091166004820152602401602060405180830381865afa158015611058573d5f5f3e3d5ffd5b505050506040513d601f19601f8201168201806040525081019061107c919061434d565b905061109e611089612540565b82906b033b2e3c9fd0803ce80000005f6125f6565b91505090565b5f6110ad612638565b507f360894a13ba1a3210667c828492db98dca3e2076cc3735a920a3ca505d382bbc90565b5f5f196110e3565b60405180910390fd5b5f6110ed856115dc565b9050610f3f6110fa611dc2565b85878461269a565b5f807f52c63247e1f47db19d5ce0460030c497f067ca4cebf71ba98eeadabe20bace005b6001600160a01b039093165f9081526020939093525050604090205490565b61114d611f9a565b6111565f6126a8565b565b5f610b0182612730565b5f60608082808083817fa16a46d94261c7517cc8ff89f61c0ce93598e3c849801011dee649a6a557d10080549091501580156111a057506001810154155b611206576040517f08c379a000000000000000000000000000000000000000000000000000000000815260206004820152601560248201527f4549503731323a20556e696e697469616c697a6564000000000000000000000060448201526064016110da565b61120e612758565b6112166127a9565b604080515f808252602082019092527f0f000000000000000000000000000000000000000000000000000000000000009c939b5091995046985030975095509350915050565b5f807f9016d09d72d40fdae2fd8ceac6b6234c7706214fd39c1cd1e609a0528c199300610e2f565b5f5f195f61129185611336565b9050610f3f61129e611dc2565b85838861269a565b7f52c63247e1f47db19d5ce0460030c497f067ca4cebf71ba98eeadabe20bace0480546060917f52c63247e1f47db19d5ce0460030c497f067ca4cebf71ba98eeadabe20bace0091610a7490614264565b5f807f55029d3f54709e547ed74b2fc842d93107ab1490ab7555dd9dd0bf6451101900610e2f565b5f5f611329611dc2565b9050610b4a818585612264565b5f610b01826001611da1565b5f5f195f61134f86610b54565b905061136561135c611dc2565b868689856127d2565b95945050505050565b5f5f195f61137b86610af6565b9050611365611388611dc2565b8686848a6127d2565b5f61139a610e0b565b6040517f70a082310000000000000000000000000000000000000000000000000000000081523060048201526001600160a01b0391909116906370a0823190602401602060405180830381865afa1580156113f7573d5f5f3e3d5ffd5b505050506040513d601f19601f8201168201806040525081019061141b919061434d565b90505f611428825f611f78565b90505f8111611463576040517f645f628e00000000000000000000000000000000000000000000000000000000815260040160405180910390fd5b61146b610e0b565b6040517f095ea7b30000000000000000000000000000000000000000000000000000000081526001600160a01b037f00000000000000000000000000000000000000000000000000000000000000008116600483015260248201859052919091169063095ea7b3906044016020604051808303815f875af11580156114f2573d5f5f3e3d5ffd5b505050506040513d601f19601f82011682018060405250810190611516919061437f565b507f00000000000000000000000000000000000000000000000000000000000000006001600160a01b031663617ba03761154e610e0b565b6040517fffffffff0000000000000000000000000000000000000000000000000000000060e084901b1681526001600160a01b039091166004820152602481018590523060448201525f60648201526084015f604051808303815f87803b1580156115b7575f5ffd5b505af11580156115c9573d5f5f3e3d5ffd5b505050506115d783826127e8565b505050565b5f610b01825f611f78565b5f5f826115fb576115f66112f7565b611603565b611603610e0b565b9050806001600160a01b031663d505accf61161c611dc2565b865160208801516040808a0151905160e086901b7fffffffff000000000000000000000000000000000000000000000000000000001681526001600160a01b039094166004850152306024850152604484018d9052606484018b905260ff909216608484015260a483015260c482015260e4015f604051808303815f87803b1580156116a6575f5ffd5b505af19250505080156116b7575060015b505f816001600160a01b03166370a082316116d0611dc2565b6040517fffffffff0000000000000000000000000000000000000000000000000000000060e084901b1681526001600160a01b039091166004820152602401602060405180830381865afa15801561172a573d5f5f3e3d5ffd5b505050506040513d601f19601f8201168201806040525081019061174e919061434d565b90508088111561175c578097505b5f611766896115dc565b905061177c611773611dc2565b898b8489612835565b98975050505050505050565b6040517f079086d00000000000000000000000000000000000000000000000000000000081523360048201527f00000000000000000000000000000000000000000000000000000000000000006001600160a01b03169063079086d090602401602060405180830381865afa158015611803573d5f5f3e3d5ffd5b505050506040513d601f19601f82011682018060405250810190611827919061437f565b61185d576040517f4b344c2d00000000000000000000000000000000000000000000000000000000815260040160405180910390fd5b6118656129d4565b5f61186e6112f7565b6040517f1da24f3e0000000000000000000000000000000000000000000000000000000081523360048201529091505f906001600160a01b03831690631da24f3e90602401602060405180830381865afa1580156118ce573d5f5f3e3d5ffd5b505050506040513d601f19601f820116820180604052508101906118f2919061434d565b9050808310156119ae576001600160a01b0382166323b872dd333061191a610a3388876143c7565b6040517fffffffff0000000000000000000000000000000000000000000000000000000060e086901b1681526001600160a01b03938416600482015292909116602483015260448201526064015b6020604051808303815f875af1158015611984573d5f5f3e3d5ffd5b505050506040513d601f19601f820116820180604052508101906119a8919061437f565b50505050565b808311156115d7576001600160a01b03821663a9059cbb336119d3610a3385886143c7565b6040517fffffffff0000000000000000000000000000000000000000000000000000000060e085901b1681526001600160a01b0390921660048301526024820152604401611968565b83421115611a59576040517f62791302000000000000000000000000000000000000000000000000000000008152600481018590526024016110da565b5f7f6e71edae12b1b97f4d1f60370fef10105fa2faae0126114a169c64845d6126c9888888611ac38c6001600160a01b03165f9081527f5ab42ced628888259c08ac98db1eb0cf702fc1501344311d8b100cd1bfe4bb006020526040902080546001810190915590565b6040805160208101969096526001600160a01b0394851690860152929091166060840152608083015260a082015260c0810186905260e0016040516020818303038152906040528051906020012090505f611b1d82612a30565b90505f611b2c82878787612a77565b9050896001600160a01b0316816001600160a01b031614611b8c576040517f4b800e460000000000000000000000000000000000000000000000000000000081526001600160a01b0380831660048301528b1660248201526044016110da565b611b978a8a8a611f6b565b50505050505050505050565b5f5f611bad6112f7565b6001600160a01b03166370a08231611bc3611dc2565b6040517fffffffff0000000000000000000000000000000000000000000000000000000060e084901b1681526001600160a01b039091166004820152602401602060405180830381865afa158015611c1d573d5f5f3e3d5ffd5b505050506040513d601f19601f82011682018060405250810190611c41919061434d565b905080841115611c4f578093505b5f611c59856115dc565b9050610f3f611c66611dc2565b8587845f612835565b611c77611f9a565b6001600160a01b038116611cb9576040517f1e4fbdf70000000000000000000000000000000000000000000000000000000081525f60048201526024016110da565b610b76816126a8565b6040517f079086d00000000000000000000000000000000000000000000000000000000081523360048201527f00000000000000000000000000000000000000000000000000000000000000006001600160a01b03169063079086d090602401602060405180830381865afa158015611d3d573d5f5f3e3d5ffd5b505050506040513d601f19601f82011682018060405250810190611d61919061437f565b611d97576040517f4b344c2d00000000000000000000000000000000000000000000000000000000815260040160405180910390fd5b610b763382612aa3565b5f610b2c611dad612540565b84906b033b2e3c9fd0803ce8000000856125f6565b5f610a39612af0565b836001600160a01b0316866001600160a01b031614611def57611def8487846121b7565b611df98483612aa3565b8015611eca577f00000000000000000000000000000000000000000000000000000000000000006001600160a01b03166369328dec611e36610e0b565b6040517fffffffff0000000000000000000000000000000000000000000000000000000060e084901b1681526001600160a01b0391821660048201526024810187905290881660448201526064016020604051808303815f875af1158015611ea0573d5f5f3e3d5ffd5b505050506040513d601f19601f82011682018060405250810190611ec4919061434d565b50611f03565b7f55029d3f54709e547ed74b2fc842d93107ab1490ab7555dd9dd0bf64511019008054611f01906001600160a01b03168786612bc9565b505b836001600160a01b0316856001600160a01b0316876001600160a01b03167ffbde797d201c681b91056529119e0b02407c7bb96a4a2c75c01fc9667232c8db8686604051611f5b929190918252602082015260400190565b60405180910390a4505050505050565b6115d78383836001612c3d565b5f610b2c6b033b2e3c9fd0803ce8000000611f91612540565b859190856125f6565b611fa2611dc2565b6001600160a01b0316611fb361125c565b6001600160a01b03161461115657611fc9611dc2565b6040517f118cdaa70000000000000000000000000000000000000000000000000000000081526001600160a01b0390911660048201526024016110da565b61200f6129d4565b7fcd5ed15c6e187e77e9aee88184c21f4f2182ab5827cb3b7e07fbedcd63f0330080547fffffffffffffffffffffffffffffffffffffffffffffffffffffffffffffff001660011781557f62e78cea01bee320cd4e420270b5ea74000d11b0c9f74754ebdbfc544b05a258612082611dc2565b6040516001600160a01b03909116815260200160405180910390a150565b6120a8612d56565b7fcd5ed15c6e187e77e9aee88184c21f4f2182ab5827cb3b7e07fbedcd63f0330080547fffffffffffffffffffffffffffffffffffffffffffffffffffffffffffffff001681557f5db9ee0a495bf2e6ff9c91a7834c1ba4fdd244a5e8aa4e537bd38aeae4b073aa612082611dc2565b612120612db1565b610f628282612e18565b612132612db1565b610b76816040518060400160405280600181526020017f3100000000000000000000000000000000000000000000000000000000000000815250612e7b565b612179612db1565b5f61218382612eed565b9050610f62816130bb565b612196612db1565b61115661317f565b6121a6612db1565b610b76816131d0565b611156612db1565b6001600160a01b038381165f9081527f52c63247e1f47db19d5ce0460030c497f067ca4cebf71ba98eeadabe20bace0160209081526040808320938616835292905220545f1981146119a85781811015612256576040517ffb8f41b20000000000000000000000000000000000000000000000000000000081526001600160a01b038416600482015260248101829052604481018390526064016110da565b6119a884848484035f612c3d565b6001600160a01b0383166122a6576040517f96c6fd1e0000000000000000000000000000000000000000000000000000000081525f60048201526024016110da565b6001600160a01b0382166122e8576040517fec442f050000000000000000000000000000000000000000000000000000000081525f60048201526024016110da565b6115d78383836131d8565b5f807f0773e532dfede91f04b12a73d3d2acd361424f41f76b4fb79f090161e36b4e0090505f815461109e919074010000000000000000000000000000000000000000900460ff166143da565b5f610a396131eb565b306001600160a01b037f00000000000000000000000000000000000000000000000000000000000000001614806123e257507f00000000000000000000000000000000000000000000000000000000000000006001600160a01b03166123d67f360894a13ba1a3210667c828492db98dca3e2076cc3735a920a3ca505d382bbc546001600160a01b031690565b6001600160a01b031614155b15611156576040517fe07c8dba00000000000000000000000000000000000000000000000000000000815260040160405180910390fd5b610b76611f9a565b816001600160a01b03166352d1902d6040518163ffffffff1660e01b8152600401602060405180830381865afa925050508015612499575060408051601f3d9081017fffffffffffffffffffffffffffffffffffffffffffffffffffffffffffffffe01682019092526124969181019061434d565b60015b6124da576040517f4c9c8ce30000000000000000000000000000000000000000000000000000000081526001600160a01b03831660048201526024016110da565b7f360894a13ba1a3210667c828492db98dca3e2076cc3735a920a3ca505d382bbc8114612536576040517faa1d49a4000000000000000000000000000000000000000000000000000000008152600481018290526024016110da565b6115d7838361325e565b5f7f00000000000000000000000000000000000000000000000000000000000000006001600160a01b031663d15e0053612578610e0b565b6040517fffffffff0000000000000000000000000000000000000000000000000000000060e084901b1681526001600160a01b039091166004820152602401602060405180830381865afa1580156125d2573d5f5f3e3d5ffd5b505050506040513d601f19601f82011682018060405250810190610a39919061434d565b5f612623612603836132b3565b801561261e57505f8480612619576126196143f3565b868809115b151590565b61262e8686866132df565b6113659190614420565b306001600160a01b037f00000000000000000000000000000000000000000000000000000000000000001614611156576040517fe07c8dba00000000000000000000000000000000000000000000000000000000815260040160405180910390fd5b6119a8848484846001612835565b7f9016d09d72d40fdae2fd8ceac6b6234c7706214fd39c1cd1e609a0528c19930080547fffffffffffffffffffffffff000000000000000000000000000000000000000081166001600160a01b03848116918217845560405192169182907f8be0079c531659141344cd1fd0a4f28419497f9722a3daafe3b4186f6b6457e0905f90a3505050565b5f807f5ab42ced628888259c08ac98db1eb0cf702fc1501344311d8b100cd1bfe4bb00611126565b7fa16a46d94261c7517cc8ff89f61c0ce93598e3c849801011dee649a6a557d10280546060917fa16a46d94261c7517cc8ff89f61c0ce93598e3c849801011dee649a6a557d10091610a7490614264565b60605f7fa16a46d94261c7517cc8ff89f61c0ce93598e3c849801011dee649a6a557d100610a63565b6127e185858585856001611dcb565b5050505050565b6001600160a01b03821661282a576040517fec442f050000000000000000000000000000000000000000000000000000000081525f60048201526024016110da565b610f625f83836131d8565b815f0361286e576040517f645f628e00000000000000000000000000000000000000000000000000000000815260040160405180910390fd5b8015612933575f61287d610e0b565b905061288b81873087613395565b6040517fe8eda9df0000000000000000000000000000000000000000000000000000000081526001600160a01b038281166004830152602482018690523060448301525f60648301527f0000000000000000000000000000000000000000000000000000000000000000169063e8eda9df906084015f604051808303815f87803b158015612917575f5ffd5b505af1158015612929573d5f5f3e3d5ffd5b505050505061296d565b7f55029d3f54709e547ed74b2fc842d93107ab1490ab7555dd9dd0bf6451101900805461296b906001600160a01b0316873087613395565b505b61297784836127e8565b836001600160a01b0316856001600160a01b03167fdcbc1c05240f31ff3ad067ef1ee35ce4997762752e3a095284754544f4c709d785856040516129c5929190918252602082015260400190565b60405180910390a35050505050565b7fcd5ed15c6e187e77e9aee88184c21f4f2182ab5827cb3b7e07fbedcd63f033005460ff1615611156576040517fd93c066500000000000000000000000000000000000000000000000000000000815260040160405180910390fd5b5f610b01612a3c612340565b836040517f19010000000000000000000000000000000000000000000000000000000000008152600281019290925260228201526042902090565b5f5f5f5f612a87888888886133ce565b925092509250612a9782826134b4565b50909695505050505050565b6001600160a01b038216612ae5576040517f96c6fd1e0000000000000000000000000000000000000000000000000000000081525f60048201526024016110da565b610f62825f836131d8565b5f336001600160a01b037f0000000000000000000000000000000000000000000000000000000000000000168103612bc4576040517f18503a1e0000000000000000000000000000000000000000000000000000000081525f60048201527f00000000000000000000000000000000000000000000000000000000000000006001600160a01b0316906318503a1e906024016040805180830381865afa158015612b9c573d5f5f3e3d5ffd5b505050506040513d601f19601f82011682018060405250810190612bc09190614433565b5090505b919050565b6040516001600160a01b038381166024830152604482018390526115d791859182169063a9059cbb906064015b604051602081830303815290604052915060e01b6020820180517bffffffffffffffffffffffffffffffffffffffffffffffffffffffff83818316178352505050506135b7565b7f52c63247e1f47db19d5ce0460030c497f067ca4cebf71ba98eeadabe20bace006001600160a01b038516612ca0576040517fe602df050000000000000000000000000000000000000000000000000000000081525f60048201526024016110da565b6001600160a01b038416612ce2576040517f94280d620000000000000000000000000000000000000000000000000000000081525f60048201526024016110da565b6001600160a01b038086165f908152600183016020908152604080832093881683529290522083905581156127e157836001600160a01b0316856001600160a01b03167f8c5be1e5ebec7d5bd14f71427d1e84f3dd0314c0f7b2291e5b200ac8c7c3b925856040516129c591815260200190565b7fcd5ed15c6e187e77e9aee88184c21f4f2182ab5827cb3b7e07fbedcd63f033005460ff16611156576040517f8dfc202b00000000000000000000000000000000000000000000000000000000815260040160405180910390fd5b7ff0c57e16840df040f15088dc2f81fe391c3923bec73e23a9662efc9c229c6a005468010000000000000000900460ff16611156576040517fd7e6bcf800000000000000000000000000000000000000000000000000000000815260040160405180910390fd5b612e20612db1565b7f52c63247e1f47db19d5ce0460030c497f067ca4cebf71ba98eeadabe20bace007f52c63247e1f47db19d5ce0460030c497f067ca4cebf71ba98eeadabe20bace03612e6c84826144a4565b50600481016119a883826144a4565b612e83612db1565b7fa16a46d94261c7517cc8ff89f61c0ce93598e3c849801011dee649a6a557d1007fa16a46d94261c7517cc8ff89f61c0ce93598e3c849801011dee649a6a557d102612ecf84826144a4565b5060038101612ede83826144a4565b505f8082556001909101555050565b5f612ef6612db1565b5f826001600160a01b0316637535d2466040518163ffffffff1660e01b8152600401602060405180830381865afa158015612f33573d5f5f3e3d5ffd5b505050506040513d601f19601f82011682018060405250810190612f579190614364565b90507f00000000000000000000000000000000000000000000000000000000000000006001600160a01b0316816001600160a01b031614612fcf576040517fd0103ae50000000000000000000000000000000000000000000000000000000081526001600160a01b03821660048201526024016110da565b5f836001600160a01b031663b16a19de6040518163ffffffff1660e01b8152600401602060405180830381865afa15801561300c573d5f5f3e3d5ffd5b505050506040513d601f19601f820116820180604052508101906130309190614364565b90505f7f55029d3f54709e547ed74b2fc842d93107ab1490ab7555dd9dd0bf645110190080547fffffffffffffffffffffffff0000000000000000000000000000000000000000166001600160a01b03871617815590506130b3827f00000000000000000000000000000000000000000000000000000000000000005f1961363c565b509392505050565b6130c3612db1565b7f0773e532dfede91f04b12a73d3d2acd361424f41f76b4fb79f090161e36b4e005f806130ef846136f9565b91509150816130ff576012613101565b805b83547fffffffffffffffffffffff000000000000000000000000000000000000000000167401000000000000000000000000000000000000000060ff92909216919091027fffffffffffffffffffffffff000000000000000000000000000000000000000016176001600160a01b0394909416939093179091555050565b613187612db1565b7fcd5ed15c6e187e77e9aee88184c21f4f2182ab5827cb3b7e07fbedcd63f0330080547fffffffffffffffffffffffffffffffffffffffffffffffffffffffffffffff00169055565b611c77612db1565b6131e06129d4565b6115d78383836137fd565b5f7f8b73c3c69bb8fe3d512ecc4cf759cc79239f7b179b0ffacaa9a75d522b39400f613215613962565b61321d6139dd565b60408051602081019490945283019190915260608201524660808201523060a082015260c00160405160208183030381529060405280519060200120905090565b61326782613a32565b6040516001600160a01b038316907fbc7cd75a20ee27fd9adebab32041f755214dbc6bffa90cc0225b39da2e5c2d3b905f90a28051156132ab576115d78282613ad9565b610f62613b42565b5f60028260038111156132c8576132c861457d565b6132d291906145aa565b60ff166001149050919050565b5f838302815f1985870982811083820303915050805f0361331357838281613309576133096143f3565b0492505050610b2c565b80841161332a5761332a6003851502601118613b7a565b5f848688095f868103871696879004966002600389028118808a02820302808a02820302808a02820302808a02820302808a02820302808a02909103029181900381900460010186841190950394909402919094039290920491909117919091029150509392505050565b6040516001600160a01b0384811660248301528381166044830152606482018390526119a89186918216906323b872dd90608401612bf6565b5f80807f7fffffffffffffffffffffffffffffff5d576e7357a4501ddfe92f46681b20a084111561340757505f915060039050826134aa565b604080515f808252602082018084528a905260ff891692820192909252606081018790526080810186905260019060a0016020604051602081039080840390855afa158015613458573d5f5f3e3d5ffd5b50506040517fffffffffffffffffffffffffffffffffffffffffffffffffffffffffffffffe001519150506001600160a01b0381166134a157505f9250600191508290506134aa565b92505f91508190505b9450945094915050565b5f8260038111156134c7576134c761457d565b036134d0575050565b60018260038111156134e4576134e461457d565b0361351b576040517ff645eedf00000000000000000000000000000000000000000000000000000000815260040160405180910390fd5b600282600381111561352f5761352f61457d565b03613569576040517ffce698f7000000000000000000000000000000000000000000000000000000008152600481018290526024016110da565b600382600381111561357d5761357d61457d565b03610f62576040517fd78bce0c000000000000000000000000000000000000000000000000000000008152600481018290526024016110da565b5f5f60205f8451602086015f885af1806135d6576040513d5f823e3d81fd5b50505f513d915081156135ed5780600114156135fa565b6001600160a01b0384163b155b156119a8576040517f5274afe70000000000000000000000000000000000000000000000000000000081526001600160a01b03851660048201526024016110da565b604080516001600160a01b038416602482015260448082018490528251808303909101815260649091019091526020810180517bffffffffffffffffffffffffffffffffffffffffffffffffffffffff167f095ea7b3000000000000000000000000000000000000000000000000000000001790526136bb8482613b8b565b6119a8576040516001600160a01b0384811660248301525f60448301526136ef91869182169063095ea7b390606401612bf6565b6119a884826135b7565b60408051600481526024810182526020810180517bffffffffffffffffffffffffffffffffffffffffffffffffffffffff167f313ce5670000000000000000000000000000000000000000000000000000000017905290515f918291829182916001600160a01b0387169161376d916145f0565b5f60405180830381855afa9150503d805f81146137a5576040519150601f19603f3d011682016040523d82523d5f602084013e6137aa565b606091505b50915091508180156137be57506020815110155b156137f1575f818060200190518101906137d8919061434d565b905060ff81116137ef576001969095509350505050565b505b505f9485945092505050565b7f52c63247e1f47db19d5ce0460030c497f067ca4cebf71ba98eeadabe20bace006001600160a01b03841661384a5781816002015f82825461383f9190614420565b909155506138d39050565b6001600160a01b0384165f90815260208290526040902054828110156138b5576040517fe450d38c0000000000000000000000000000000000000000000000000000000081526001600160a01b038616600482015260248101829052604481018490526064016110da565b6001600160a01b0385165f9081526020839052604090209083900390555b6001600160a01b0383166138f157600281018054839003905561390f565b6001600160a01b0383165f9081526020829052604090208054830190555b826001600160a01b0316846001600160a01b03167fddf252ad1be2c89b69c2b068fc378daa952ba7f163c4a11628f55a4df523b3ef8460405161395491815260200190565b60405180910390a350505050565b5f7fa16a46d94261c7517cc8ff89f61c0ce93598e3c849801011dee649a6a557d1008161398d612758565b8051909150156139a557805160209091012092915050565b815480156139b4579392505050565b7fc5d2460186f7233c927e7db2dcc703c0e500b653ca82273b7bfad8045d85a470935050505090565b5f7fa16a46d94261c7517cc8ff89f61c0ce93598e3c849801011dee649a6a557d10081613a086127a9565b805190915015613a2057805160209091012092915050565b600182015480156139b4579392505050565b806001600160a01b03163b5f03613a80576040517f4c9c8ce30000000000000000000000000000000000000000000000000000000081526001600160a01b03821660048201526024016110da565b7f360894a13ba1a3210667c828492db98dca3e2076cc3735a920a3ca505d382bbc80547fffffffffffffffffffffffff0000000000000000000000000000000000000000166001600160a01b0392909216919091179055565b60605f5f846001600160a01b031684604051613af591906145f0565b5f60405180830381855af49150503d805f8114613b2d576040519150601f19603f3d011682016040523d82523d5f602084013e613b32565b606091505b5091509150611365858383613bd4565b3415611156576040517fb398979f00000000000000000000000000000000000000000000000000000000815260040160405180910390fd5b634e487b715f52806020526024601cfd5b5f5f5f5f60205f8651602088015f8a5af192503d91505f519050828015613bca57508115613bbc5780600114613bca565b5f866001600160a01b03163b115b9695505050505050565b606082613be957613be482613c49565b610b2c565b8151158015613c0057506001600160a01b0384163b155b15613c42576040517f9996b3150000000000000000000000000000000000000000000000000000000081526001600160a01b03851660048201526024016110da565b5080610b2c565b805115613c595780518082602001fd5b6040517fd6bda27500000000000000000000000000000000000000000000000000000000815260040160405180910390fd5b5f81518084528060208401602086015e5f6020828601015260207fffffffffffffffffffffffffffffffffffffffffffffffffffffffffffffffe0601f83011685010191505092915050565b602081525f610b2c6020830184613c8b565b5f60208284031215613cf9575f5ffd5b5035919050565b6001600160a01b0381168114610b76575f5ffd5b5f5f5f60608486031215613d26575f5ffd5b833592506020840135613d3881613d00565b91506040840135613d4881613d00565b809150509250925092565b5f5f60408385031215613d64575f5ffd5b8235613d6f81613d00565b946020939093013593505050565b8015158114610b76575f5ffd5b5f60208284031215613d9a575f5ffd5b8135610b2c81613d7d565b5f5f83601f840112613db5575f5ffd5b50813567ffffffffffffffff811115613dcc575f5ffd5b602083019150836020828501011115613de3575f5ffd5b9250929050565b5f5f5f5f5f5f60808789031215613dff575f5ffd5b8635613e0a81613d00565b95506020870135613e1a81613d00565b9450604087013567ffffffffffffffff811115613e35575f5ffd5b613e4189828a01613da5565b909550935050606087013567ffffffffffffffff811115613e60575f5ffd5b613e6c89828a01613da5565b979a9699509497509295939492505050565b5f5f5f60608486031215613e90575f5ffd5b8335613e9b81613d00565b92506020840135613eab81613d00565b929592945050506040919091013590565b5f60208284031215613ecc575f5ffd5b8135610b2c81613d00565b5f5f60408385031215613ee8575f5ffd5b8235613ef381613d00565b91506020830135613f0381613d00565b809150509250929050565b7f4e487b71000000000000000000000000000000000000000000000000000000005f52604160045260245ffd5b604051601f82017fffffffffffffffffffffffffffffffffffffffffffffffffffffffffffffffe016810167ffffffffffffffff81118282101715613f8257613f82613f0e565b604052919050565b5f5f60408385031215613f9b575f5ffd5b8235613fa681613d00565b9150602083013567ffffffffffffffff811115613fc1575f5ffd5b8301601f81018513613fd1575f5ffd5b803567ffffffffffffffff811115613feb57613feb613f0e565b61401c60207fffffffffffffffffffffffffffffffffffffffffffffffffffffffffffffffe0601f84011601613f3b565b818152866020838501011115614030575f5ffd5b816020840160208301375f602083830101528093505050509250929050565b5f5f60408385031215614060575f5ffd5b823591506020830135613f0381613d00565b7fff000000000000000000000000000000000000000000000000000000000000008816815260e060208201525f6140ac60e0830189613c8b565b82810360408401526140be8189613c8b565b606084018890526001600160a01b038716608085015260a0840186905283810360c0850152845180825260208087019350909101905f5b818110156141135783518352602093840193909201916001016140f5565b50909b9a5050505050505050505050565b803560ff81168114612bc4575f5ffd5b5f5f5f5f5f85870360e0811215614149575f5ffd5b86359550602087013561415b81613d00565b94506040870135935060607fffffffffffffffffffffffffffffffffffffffffffffffffffffffffffffffa082011215614193575f5ffd5b506040516060810167ffffffffffffffff811182821017156141b7576141b7613f0e565b6040526141c660608801614124565b81526080870135602082015260a08701356040820152915060c08601356141ec81613d7d565b809150509295509295909350565b5f5f5f5f5f5f5f60e0888a031215614210575f5ffd5b873561421b81613d00565b9650602088013561422b81613d00565b9550604088013594506060880135935061424760808901614124565b9699959850939692959460a0840135945060c09093013592915050565b600181811c9082168061427857607f821691505b6020821081036142af577f4e487b71000000000000000000000000000000000000000000000000000000005f52602260045260245ffd5b50919050565b7f4e487b71000000000000000000000000000000000000000000000000000000005f52603260045260245ffd5b608080825285519082018190525f90602087019060a0840190835b818110156143245783516001600160a01b03168352602093840193909201916001016142fd565b5050602084019690965250506001600160a01b0392831660408201529116606090910152919050565b5f6020828403121561435d575f5ffd5b5051919050565b5f60208284031215614374575f5ffd5b8151610b2c81613d00565b5f6020828403121561438f575f5ffd5b8151610b2c81613d7d565b7f4e487b71000000000000000000000000000000000000000000000000000000005f52601160045260245ffd5b81810381811115610b0157610b0161439a565b60ff8181168382160190811115610b0157610b0161439a565b7f4e487b71000000000000000000000000000000000000000000000000000000005f52601260045260245ffd5b80820180821115610b0157610b0161439a565b5f5f60408385031215614444575f5ffd5b825161444f81613d00565b6020840151909250613f0381613d7d565b601f8211156115d757805f5260205f20601f840160051c810160208510156144855750805b601f840160051c820191505b818110156127e1575f8155600101614491565b815167ffffffffffffffff8111156144be576144be613f0e565b6144d2816144cc8454614264565b84614460565b6020601f821160018114614504575f83156144ed5750848201515b5f19600385901b1c1916600184901b1784556127e1565b5f848152602081207fffffffffffffffffffffffffffffffffffffffffffffffffffffffffffffffe08516915b828110156145515787850151825560209485019460019092019101614531565b508482101561456e57868401515f19600387901b60f8161c191681555b50505050600190811b01905550565b7f4e487b71000000000000000000000000000000000000000000000000000000005f52602160045260245ffd5b5f60ff8316806145e1577f4e487b71000000000000000000000000000000000000000000000000000000005f52601260045260245ffd5b8060ff84160691505092915050565b5f82518060208501845e5f92019182525091905056fea26469706673582212205bec179a702660d78814828cf58f4b45e908cbf08c38769dd5d03e40891977b764736f6c634300081c0033","linkReferences":{}},"methodIdentifiers":{"DOMAIN_SEPARATOR()":"3644e515","EVC()":"a70354a1","INCENTIVES_CONTROLLER()":"10d0ab22","POOL()":"7535d246","POOL_ADDRESSES_PROVIDER()":"311cd5a4","RAY()":"552033c4","UPGRADE_INTERFACE_VERSION()":"ad3cb1cc","aToken()":"a0c1f15e","allowance(address,address)":"dd62ed3e","approve(address,uint256)":"095ea7b3","asset()":"38d52e0f","balanceOf(address)":"70a08231","burnShares_CV(uint256)":"fdebd167","claimReward(address,address)":"4953c782","collateralVaultFactory()":"5297ffbb","convertToAssets(uint256)":"07a2d13a","convertToShares(uint256)":"c6e6f592","decimals()":"313ce567","deposit(uint256,address)":"6e553f65","depositATokens(uint256,address)":"e25ec349","depositWithPermit(uint256,address,uint256,(uint8,bytes32,bytes32),bool)":"cabc777e","eip712Domain()":"84b0196e","initialize(address,address,string,string)":"2016a0d2","latestAnswer()":"50d25bcd","maxDeposit(address)":"402d267d","maxMint(address)":"c63d75b6","maxRedeem(address)":"d905777e","maxWithdraw(address)":"ce96cb77","mint(uint256,address)":"94bf804d","name()":"06fdde03","nonces(address)":"7ecebe00","owner()":"8da5cb5b","paused()":"5c975abb","permit(address,address,uint256,uint256,uint8,bytes32,bytes32)":"d505accf","previewDeposit(uint256)":"ef8b30f7","previewMint(uint256)":"b3d7f6b9","previewRedeem(uint256)":"4cdad506","previewWithdraw(uint256)":"0a28a477","proxiableUUID()":"52d1902d","rebalanceATokens_CV(uint256)":"d0be1d00","redeem(uint256,address,address)":"ba087652","redeemATokens(uint256,address,address)":"090edf9a","renounceOwnership()":"715018a6","setPaused(bool)":"16c38b3c","skim(address)":"bc25cf77","symbol()":"95d89b41","totalAssets()":"01e1d114","totalSupply()":"18160ddd","transfer(address,uint256)":"a9059cbb","transferFrom(address,address,uint256)":"23b872dd","transferOwnership(address)":"f2fde38b","upgradeToAndCall(address,bytes)":"4f1ef286","version()":"54fd4d50","withdraw(uint256,address,address)":"b460af94"},"id":269}